:020000040800F2
:100000000050002045170008C3050008C50500087A
:10001000C7050008C9050008CB050008000000005E
:10002000000000000000000000000000CD050008F6
:10003000CF05000800000000D1050008D305000826
:100040008D1700088D1700088D1700088D17000800
:100050008D1700088D1700088D1700088D170008F0
:100060008D1700088D1700088D1700088D170008E0
:100070008D1700088D1700088D1700088D170008D0
:100080008D1700088D1700088D1700088D170008C0
:100090008D1700088D1700088D1700088D170008B0
:1000A0008D1700088D1700088D1700088D170008A0
:1000B000DD0500088D1700088D1700088D17000852
:1000C0008D1700088D1700088D1700088D17000880
:1000D0008D1700088D1700088D1700088D17000870
:1000E0008D1700088D1700088D170008000000000C
:1000F0000000000000000000000000000000000000
:0C01000000000000000000005FF808F1A3
:10010C0070B5860747D0541E002A3ED00346CAB2AB
:10011C0001E0013C39D303F8012B9D07F9D1032CE5
:10012C002CD9CDB205EB05250F2C1A4605EB054550
:10013C0034D9A4F1100C2CF00F0603F1100EB644B8
:10014C004FEA1C1CC2E90055C2E902551032724537
:10015C00F8D10CF1010214F00C0F03EB021204F0B5
:10016C000F0C13D0ACF1040323F00303043313443A
:10017C0042F8045B9342FBD10CF003042CB1C9B2DE
:10018C001C4403F8011BA342FBD170BD644613460B
:10019C00002CF4D1F9E703461446C0E7A446E1E786
:1001AC0070B50F4B0F4DAB42A3EB050607D00024E7
:1001BC00B61055F8043B01349847A642F9D801F023
:1001CC00E1FA094D094B5E1BAB424FEAA60606D07D
:1001DC00002455F8043B01349847A642F9D870BD69
:1001EC00CC170008CC170008CC170008D017000853
:1001FC0010B5054C237833B9044B13B10448AFF355
:10020C0000800123237010BD1000002000000000AE
:10021C009017000808B5034B1BB103490348AFF313
:10022C00008008BD0000000014000020901700089A
:10023C0008B50368B3F1804F00D008BD1E4B1B7886
:10024C0063B91E4B1B78FBB900224FF400511C48BC
:10025C0001F08DF8194B01221A70EEE701224FF4D0
:10026C000051174801F083F8164A136801331360E4
:10027C00042BE2D90023104A1370124A1360124A5D
:10028C0013600E4A1370D8E701224FF400510C484A
:10029C0001F06DF8094B00221A700B4A13680133F8
:1002AC0013600A4A12689342C7D3034B01221A7097
:1002BC00044B00221A60C0E73C00002034000020F0
:1002CC0000100140380000204000002000000020F9
:1002DC0010B586B0044601F00FF9002302930A4BC7
:1002EC0004930123059301A902A801F0D1F918B1D7
:1002FC0001F01CF906B010BD224600230249022071
:10030C0001F052F9F4E700BF00FC0008014BD3F8F0
:10031C00000C704700F0000872B6FEE700B591B013
:10032C002822002106A8FFF7EBFE0023019302937D
:10033C00039304930593012206924FF480330793A1
:10034C000A9202220D920E934FF4E0130F9306A81B
:10035C0000F010FC80B90F230193022102910023BD
:10036C0003934FF480620492059301A800F034FECD
:10037C0020B911B05DF804FBFFF7CEFFFFF7CCFFFF
:10038C0008B500F0BDFBFFF7C9FF00F069F800F0FD
:10039C00BDF8FFF7BBFF072805D82B4B18602B487F
:1003AC0000F06EF91DE00420274B1860FFF790FF5A
:1003BC00F5E7274B1B78A3B900F0C0FB254B1B6856
:1003CC00C01A40F6B73398420BD904201E4B186064
:1003DC00FFF77EFF1E4B01221A7002E01E4B1B78AA
:1003EC00A3B901211D4800F0BBFF0028F6D11A4B20
:1003FC001B78002BDDD1184B01221A7000F09EFBEC
:10040C00144B1860124B00221A70EAE700F096FBAE
:10041C00104B1B68C01A333840F6843398420FD8FF
:10042C000B4B1B7863B9084A136801331360072B15
:10043C0002D9134604221A60034B1868FFF748FFD1
:10044C00054B00221A70CCE700000020440000206D
:10045C002C000020300000202D000020000801405E
:10046C002DE9F04188B00024049405940694079477
:10047C00234B9A6942F010029A619A6902F01002B9
:10048C000192019A9A6942F020029A619A6902F0EB
:10049C0020020292029A9A6942F004029A619B69C4
:1004AC0003F004030393039BDFF8588022464FF4B8
:1004BC000051404600F05BFF134E224602213046AD
:1004CC0000F055FF4FF40053049301250595069455
:1004DC000227079704A9404600F034FE04950594C2
:1004EC00069504A9304600F02DFE04970595069458
:1004FC00079704A9304600F025FE08B0BDE8F0814E
:10050C0000100240001001400008014000B587B007
:10051C0000230293039304930593009301931648CD
:10052C004FF08042026041F61F424260836042F20B
:10053C000F72C2600361836100F0CCF990B94FF483
:10054C008053029302A90C4800F0FCF968B900230F
:10055C00009301936946084800F074FA40B907B05B
:10056C005DF804FBFFF7D8FEE9E7FFF7D5FEEEE7F1
:10057C00FFF7D2FEF3E700BF440000200368B3F19D
:10058C00804F00D0704700B583B003F50433DA69AF
:10059C0042F00102DA61DB6903F001030193019B74
:1005AC00002211461C2000F02FFF1C2000F03CFF05
:1005BC0003B05DF804FBFEE7FEE7FEE7FEE7FEE7AF
:1005CC0070477047704708B500F0ACFA08BD0000E2
:1005DC0008B5024800F08CF808BD00BF44000020AC
:1005EC0082B00E4B9A6942F001029A619A6902F04C
:1005FC0001020092009ADA6942F08052DA61DB69FA
:10060C0003F080530193019B054A536823F0E06388
:10061C0043F00073536002B0704700BF00100240FB
:10062C000000014010B4036A046A24F0010404625F
:10063C00846924F0F00C4CEA021223F00A030B43F9
:10064C008261036210BC704710B4036A046A24F020
:10065C0010040462846924F4704C4CEA023223F0D6
:10066C00A00343EA01138261036210BC70478368E4
:10067C0023F070030B4343F00703836070470000C3
:10068C0090F83D30DBB2012B27D1022380F83D30AE
:10069C000268D36843F00103D3600368114A9342A4
:1006AC0010D0B3F1804F0DD0A2F59432934209D003
:1006BC0002F58062934205D01A6842F001021A607A
:1006CC00002070479A6802F00702062A07D01A68C1
:1006DC0042F001021A600020704701207047002090
:1006EC00704700BF002C014070477047704770473F
:1006FC0070B504460368DE681D6915F0020F10D052
:10070C0016F0020F0DD06FF002021A61012303776D
:10071C0003689B6913F0030F5ED0FFF7E6FF00231D
:10072C00237715F0040F12D016F0040F0FD02368A6
:10073C006FF004021A610223237723689B6913F478
:10074C00407F4FD02046FFF7D0FF0023237715F0D2
:10075C00080F12D016F0080F0FD023686FF00802A4
:10076C001A61042323772368DB6913F0030F40D04D
:10077C002046FFF7BAFF0023237715F0100F12D095
:10078C0016F0100F0FD023686FF010021A610823B7
:10079C0023772368DB6913F4407F31D02046FFF7C1
:1007AC00A4FF0023237715F0010F02D016F0010FE0
:1007BC002DD115F0800F02D016F0800F2FD115F02F
:1007CC00400F02D016F0400F31D115F0200F02D09F
:1007DC0016F0200F33D170BDFFF786FF2046FFF7D0
:1007EC0085FF9CE72046FFF77FFF2046FFF77EFF43
:1007FC00ABE72046FFF778FF2046FFF777FFBAE715
:10080C002046FFF771FF2046FFF770FFC9E723680A
:10081C006FF001021A612046FFF70AFDC9E7236851
:10082C006FF080021A61204600F043F9C7E7236895
:10083C006FF040021A612046FFF759FFC5E72368A5
:10084C006FF020021A61204600F032F9C3E7000075
:10085C0003681F4A90420AD0B0F1804F07D0A2F52E
:10086C009432904203D002F58062904203D123F07F
:10087C0070034A681343164A90420AD0B0F1804F75
:10088C0007D0A2F59432904203D002F580629042D8
:10089C0003D123F44073CA68134323F080034A69DD
:1008AC00134303608B68C3620B688362084B9842E6
:1008BC000AD001234361036913F0010F03D00369CC
:1008CC0023F00103036170470B690363F1E700BF79
:1008DC00002C014040B310B5044690F83D30F3B104
:1008EC00022384F83D30214651F8040BFFF7B0FF8A
:1008FC00012384F8463084F83E3084F83F3084F885
:10090C00403084F8413084F8423084F8433084F825
:10091C00443084F8453084F83D30002010BD80F818
:10092C003C30FFF72BFEDBE70120704710B48468E6
:10093C0024F47F4C42EA03220A4342EA0C0282600E
:10094C0010BC704790F83C30012B78D010B50446A1
:10095C00012380F83C30022380F83D300268936814
:10096C0023F47F4323F0770393600B68602B4CD008
:10097C0023D8402B54D011D8202B03D00AD80BB13C
:10098C00102B05D119462068FFF771FE002028E0D6
:10099C00012026E0302BF5D0012022E0502B0AD18B
:1009AC00CA6849680068FFF73DFE50212068FFF7D0
:1009BC005EFE002015E0012013E0B3F5805F3AD015
:1009CC00B3F5005F14D0702B37D1CB684A688968B7
:1009DC000068FFF7ABFF2268936843F077039360DE
:1009EC000020012384F83D30002384F83C3010BDF6
:1009FC00CB684A6889680068FFF798FF226893689B
:100A0C0043F4804393600020EBE7CA6849680068B0
:100A1C00FFF71AFE60212068FFF729FE0020E0E7AF
:100A2C00CA6849680068FFF7FDFD40212068FFF7A0
:100A3C001EFE0020D5E70020D3E70120D1E70220DD
:100A4C007047000090F83C20012A2CD010B40346CB
:100A5C00012280F83C20022280F83D200268506878
:100A6C00946820F0700C086840EA0C0050601A681A
:100A7C000E4882420AD0B2F1804F07D0A0F59430D4
:100A8C00824203D000F58060824204D124F08004BD
:100A9C00496821439160012283F83D20002083F8AE
:100AAC003C0010BC70470220704700BF002C014076
:100ABC007047704710B504460E4B1A784FF47A7392
:100ACC00B3FBF2F30C4A1068B0FBF3F000F0BAFC85
:100ADC0068B90F2C01D901200AE0002221464FF001
:100AEC00FF3000F091FC054B1C60002000E0012061
:100AFC0010BD00BF040000200C00002008000020E6
:100B0C0008B5074A136843F010031360032000F084
:100B1C0069FC0F20FFF7CEFFFFF762FD002008BD38
:100B2C0000200240034A1168034B1B780B441360EE
:100B3C00704700BF8C00002004000020014B186897
:100B4C00704700BF8C00002082B0084B1B68084A1D
:100B5C00A2FB03235B0A00FB03F3019300BF019B81
:100B6C005A1E0192002BF9D102B070470C000020E4
:100B7C00D34D6210002800F0F18170B582B00446AC
:100B8C00036813F0010F2CD0994B5B6803F00C0336
:100B9C00042B1DD0964B5B6803F00C03082B12D072
:100BAC006368B3F5803F41D0002B55D103F18043EE
:100BBC0003F504331A6822F480321A601A6822F49E
:100BCC0080221A6037E08A4B5B6813F4803FE7D0D1
:100BDC00874B1B6813F4003F03D06368002B00F0B5
:100BEC00BF81236813F0020F75D0814B5B6813F043
:100BFC000C0F5FD07E4B5B6803F00C03082B54D0BA
:100C0C002369002B00F08A807A4B01221A60FFF7CF
:100C1C0095FF0546764B1B6813F0020F75D1FFF755
:100C2C008DFF401B0228F5D903209EE1704A136802
:100C3C0043F480331360636843B3FFF77FFF0546CB
:100C4C006B4B1B6813F4003FCBD1FFF777FF401BB6
:100C5C006428F5D9032088E1B3F5A02F09D0644BA3
:100C6C001A6822F480321A601A6822F480221A6000
:100C7C00E1E703F18043A3F53C331A6842F4802288
:100C8C001A601A6842F480321A60D4E7FFF756FFF4
:100C9C000546574B1B6813F4003FA2D0FFF74EFFDD
:100CAC00401B6428F5D903205FE1514B5B6813F4BA
:100CBC00803FA5D14E4B1B6813F0020F03D0236964
:100CCC00012B40F04F814A4A136823F0F803616905
:100CDC0043EAC1031360236813F0080F33D0A369F0
:100CEC00002B5CD0434B0122C3F88024FFF726FF76
:100CFC0005463F4B5B6A13F0020F21D1FFF71EFF35
:100D0C00401B0228F5D903202FE1394A136823F040
:100D1C00F803616943EAC1031360DCE7354B002239
:100D2C001A60FFF70BFF0546314B1B6813F0020FDF
:100D3C00D1D0FFF703FF401B0228F5D9032014E1A3
:100D4C000120FFF701FF236813F0040F00F09680D9
:100D5C00274BDB6913F0805F34D1254BDA6942F005
:100D6C008052DA61DB6903F080530193019B01250A
:100D7C00214B1B6813F4807F26D0E368012B3DD0F8
:100D8C00002B53D103F1804303F504331A6A22F08C
:100D9C0001021A621A6A22F004021A6233E0154B3D
:100DAC000022C3F88024FFF7C9FE0546104B5B6A8E
:100DBC0013F0020FC7D0FFF7C1FE401B0228F5D974
:100DCC000320D2E00025D3E70B4A136843F4807369
:100DDC001360FFF7B3FE0646074B1B6813F4807FC6
:100DEC00CBD1FFF7ABFE801B6428F5D90320BCE008
:100DFC000010024000004242007000405F4A136A3B
:100E0C0043F001031362E36833B3FFF797FE064622
:100E1C005A4B1B6A13F0020F2FD1FFF78FFE801B6A
:100E2C0041F288339842F3D903209EE0052B09D078
:100E3C00524B1A6A22F001021A621A6A22F0040258
:100E4C001A62E0E74D4B1A6A42F004021A621A6AFF
:100E5C0042F001021A62D6E7FFF770FE0646474BD6
:100E6C001B6A13F0020F08D0FFF768FE801B41F2DB
:100E7C0088339842F3D9032077E0E5B9E369002B76
:100E8C0072D03E4A526802F00C02082A56D0022B4D
:100E9C0017D03B4B00221A66FFF750FE0446374B27
:100EAC001B6813F0007F47D0FFF748FE001B022899
:100EBC00F5D9032059E0314AD36923F08053D3612B
:100ECC00DCE72F4B00221A66FFF738FE05462B4B4A
:100EDC001B6813F0007F06D0FFF730FE401B022882
:100EEC00F5D9032041E0236AB3F5803F1AD023499A
:100EFC004B6823F47413226A606A024313434B60F9
:100F0C001F4B01221A66FFF719FE04461B4B1B6888
:100F1C0013F0007F0ED1FFF711FE001B0228F5D94C
:100F2C00032022E0154A536823F40033A1680B43D5
:100F3C005360DCE7002018E0002016E0012B16D0EF
:100F4C000E4B5B6803F48031226A914211D103F499
:100F5C007013626A93420ED1002006E001207047A4
:100F6C00012002E0012000E0002002B070BD012051
:100F7C00FBE70120F9E70120F7E700BF0010024072
:100F8C00000042420F4B5B6803F00C02082A01D0B0
:100F9C000D487047C3F383420C49885C13F4803FBF
:100FAC000BD0084B5B68C3F34043094AD35C064A39
:100FBC0002FB00F0B0FBF3F07047064B03FB00F0B4
:100FCC00704700BF0010024000127A00AC170008F6
:100FDC00A817000800093D00002800F0A08070B59B
:100FEC000D460446524B1B6803F007038B420BD291
:100FFC004F4A136823F007030B431360136803F085
:10100C0007038B4240F08D80236813F0020F17D03A
:10101C0013F0040F04D0474A536843F4E063536061
:10102C00236813F0080F04D0424A536843F460530A
:10103C005360404A536823F0F003A1680B4353609C
:10104C00236813F0010F31D06368012B20D0022BE1
:10105C0025D0384A126812F0020F64D035494A681C
:10106C0022F0030213434B60FFF768FD0646314B39
:10107C005B6803F00C036268B3EB820F16D0FFF7CA
:10108C005DFD801B41F288339842F0D9032045E086
:10109C00284A126812F4003FE0D101203EE0254AB4
:1010AC00126812F0007FD9D1012037E0204B1B6869
:1010BC0003F00703AB420AD91D4A136823F0070358
:1010CC002B431360136803F00703AB422DD1236845
:1010DC0013F0040F06D0174A536823F4E063E16859
:1010EC000B435360236813F0080F07D0114A536861
:1010FC0023F46053216943EAC1035360FFF742FFB5
:10110C000C4B5B68C3F303130B4AD35CD8400B4BFB
:10111C0018600B4B1868FFF7CDFC002070BD012048
:10112C0070470120FAE70120F8E70120F6E700BF3D
:10113C000020024000100240BC1700080C000020E8
:10114C000800002070B582B00024A446A1E07E4DBA
:10115C00AB4214D00CD8A5F58015AB420FD005F5D9
:10116C007025AB420BD0A5F58015AB4210D106E033
:10117C00764DAB4203D005F58035AB4208D18B6878
:10118C00002B50D0012B49D04261082400E0CC68E0
:10119C00BEF1FF0F49D806464FEA8C0233680F2583
:1011AC00954023EA050304FA02F2134333604B68BB
:1011BC0013F0805F6BD0664B9A6942F001029A6122
:1011CC009B6903F001030193019B4FEA9C02951C60
:1011DC00604B53F825600CF00305AD000F23AB40BA
:1011EC0026EA03065C4B984226D003F580639842AE
:1011FC0000F08C8003F58063984200F0898003F541
:10120C008063984216D0042317E0CC680434BFE7FF
:10121C00CC680834BCE7CC680C34B9E7026108240C
:10122C00B6E70024B4E70424B2E7061DACF10802CB
:10123C009200B3E7032300E00023AB4033430232B8
:10124C00444D45F822304B6813F4801F62D0434A5A
:10125C00936843EA0E0393604B6813F4001F5FD04E
:10126C003E4AD36843EA0E03D3604B6813F4003F45
:10127C005CD03A4A536843EA0E0353604B6813F44C
:10128C00803F59D0354A136843EA0E0313600CF1C2
:10129C00010C0B6833FA0CF254D0012202FA0CF256
:1012AC0003EA020E32EA0303F1D14B68122B3FF62C
:1012BC004EAF122B3FF66CAF01A555F823F000BFD3
:1012CC008B1100089B1100081D1200082F1200083A
:1012DC009D1100089D1100089D1100089D1100082A
:1012EC009D1100089D1100089D1100089D1100081A
:1012FC009D1100089D1100089D1100089D1100080A
:10130C009D1100081712000823120008012394E70E
:10131C00022392E7114A936823EA0E0393609BE73A
:10132C000E4AD36823EA0E03D3609EE70B4A536838
:10133C0023EA0E035360A1E7084A136823EA0E035D
:10134C001360A4E702B070BD000022100000311041
:10135C000010024000000140000801400004014060
:10136C008368194201D001207047002070470AB1F0
:10137C00016170470904016170470000002808DB17
:10138C000901C9B200F1604000F5614080F800131A
:10139C00704700F00F000901C9B2014B1954704796
:1013AC0014ED00E000B500F00700C0F1070CBCF133
:1013BC00040F28BF4FF0040C031D062B0FD9C31EBE
:1013CC004FF0FF3E0EFA0CF021EA000199400EFAA4
:1013DC0003FE22EA0E0241EA02005DF804FB002340
:1013EC00EEE70000074AD36823F4E0631B041B0CF0
:1013FC00000200F4E060034343F0BF6343F40033A6
:10140C00D360704700ED00E010B50446054BD8687A
:10141C00C0F30220FFF7C6FF01462046FFF7AEFFE0
:10142C0010BD00BF00ED00E0002807DB00F01F023C
:10143C00400901239340024A42F82030704700BF14
:10144C0000E100E00138B0F1807F0BD24FF0E023D7
:10145C005861054AF02182F8231000209861072278
:10146C001A6170470120704700ED00E0044B002228
:10147C00DA61044A136943F0010313610180704778
:10148C009000002000200240194BDB6813F0100381
:10149C0005D0184AD36943F00203D3611023144AD0
:1014AC00D26812F0040F06D01249CA6942F0010248
:1014BC00CA6143F004030E4AD26912F0010F09D03D
:1014CC000C49CA6942F00402CA610949CA6922F08E
:1014DC000102CA6140F20112934202D0044AD36065
:1014EC007047034AD36923F00103D361704700BFEF
:1014FC0000200240900000200A4B1B6913F0800F63
:10150C000BD0084B084A5A6002F188325A601B69AA
:10151C0013F0800F03D1002070470020704701208A
:10152C00704700BF0020024023016745034A13693E
:10153C0043F0800313610020704700BF002002407D
:10154C0038B50446FFF7FAFA0546164BDB6813F07C
:10155C00010F0AD0B4F1FF3FF7D024B1FFF7EEFA38
:10156C00401BA042F1D903201BE00E4BDB6813F0AB
:10157C00200F02D00B4B2022DA600A4BDB6813F0F1
:10158C00100F0BD1074BDB6913F0010F06D1054B84
:10159C00DB6813F0040F01D1002002E0FFF774FFA9
:1015AC00012038BD002002402DE9F8431E46244B93
:1015BC001B7E012B41D004460F469046204B012246
:1015CC001A764CF25030FFF7BBFF034678BB012C68
:1015DC0008D0022C03D04FF004091C4607E04FF052
:1015EC000209FAE74FF00109F7E70134E4B24C4580
:1015FC001DD22101C1F12002A1F1200328FA01F131
:10160C0006FA02F2114326FA03F3194389B207EBE7
:10161C004400FFF72BFF4CF25030FFF791FF094BC2
:10162C001D6925F001051D6103460028DDD0044A23
:10163C00002111761846BDE8F8830223FAE700BFB3
:10164C009000002000200240064B0022DA61064B7D
:10165C001A6942F004021A611A6942F040021A61D6
:10166C00704700BF9000002000200240064B002273
:10167C00DA61064B1A6942F002021A6158611A6962
:10168C0042F040021A617047900000200020024096
:10169C00264B1B7E012B46D070B505460E46234BC0
:1016AC0001221A760368022B20D04CF25030FFF73F
:1016BC0047FF90BB4FF0FF333360AC680121EA6801
:1016CC00AB6803EB8223A34228D92046FFF7CEFF59
:1016DC004CF25030FFF734FF154A136923F0020324
:1016EC0013610146B8B904F58064E8E74CF2503058
:1016FC00FFF726FF08B1012110E00120FFF7A4FF3E
:10170C004CF25030FFF71CFF0146094A136923F0D5
:10171C000403136102E0346000E00121034B00225A
:10172C001A76084670BD02210846704790000020CA
:10173C000020024070470000FFF7FCFF0B480C49EB
:10174C000C4A002302E0D458C4500433C4188C4211
:10175C00F9D3094A094C002301E013600432A24278
:10176C00FBD3FEF71DFDFEF70BFE704700000020BB
:10177C0010000020D417000810000020B00000203A
:10178C00FEE70000F8B500BFF8BC08BC9E467047E9
:0C179C00F8B500BFF8BC08BC9E467047C2
:1017A8000102000002030405060708090A0B0C0DD4
:1017B8000E0F1010000000000000000001020304DA
:0417C80006070809FF
:0417CC0021020008EE
:0417D000FD0100080F
:1017D40004000000010000001000000000127A0064
:040000050800174593
:00000001FF
